{
  "contractName": "PetroBurn",
  "abi": [
    {
      "inputs": [],
      "stateMutability": "nonpayable",
      "type": "constructor"
    },
    {
      "anonymous": false,
      "inputs": [
        {
          "indexed": true,
          "internalType": "address",
          "name": "tokenOwner",
          "type": "address"
        },
        {
          "indexed": true,
          "internalType": "address",
          "name": "spender",
          "type": "address"
        },
        {
          "indexed": false,
          "internalType": "uint256",
          "name": "tokens",
          "type": "uint256"
        }
      ],
      "name": "Approval",
      "type": "event"
    },
    {
      "anonymous": false,
      "inputs": [
        {
          "indexed": true,
          "internalType": "address",
          "name": "from",
          "type": "address"
        },
        {
          "indexed": true,
          "internalType": "address",
          "name": "to",
          "type": "address"
        },
        {
          "indexed": false,
          "internalType": "uint256",
          "name": "tokens",
          "type": "uint256"
        }
      ],
      "name": "Transfer",
      "type": "event"
    },
    {
      "inputs": [],
      "name": "_decimals",
      "outputs": [
        {
          "internalType": "uint8",
          "name": "",
          "type": "uint8"
        }
      ],
      "stateMutability": "view",
      "type": "function"
    },
    {
      "inputs": [],
      "name": "_name",
      "outputs": [
        {
          "internalType": "string",
          "name": "",
          "type": "string"
        }
      ],
      "stateMutability": "view",
      "type": "function"
    },
    {
      "inputs": [],
      "name": "_symbol",
      "outputs": [
        {
          "internalType": "string",
          "name": "",
          "type": "string"
        }
      ],
      "stateMutability": "view",
      "type": "function"
    },
    {
      "inputs": [],
      "name": "_totalSupply",
      "outputs": [
        {
          "internalType": "uint256",
          "name": "",
          "type": "uint256"
        }
      ],
      "stateMutability": "view",
      "type": "function"
    },
    {
      "inputs": [
        {
          "internalType": "uint256",
          "name": "a",
          "type": "uint256"
        },
        {
          "internalType": "uint256",
          "name": "b",
          "type": "uint256"
        }
      ],
      "name": "safeAdd",
      "outputs": [
        {
          "internalType": "uint256",
          "name": "c",
          "type": "uint256"
        }
      ],
      "stateMutability": "pure",
      "type": "function"
    },
    {
      "inputs": [
        {
          "internalType": "uint256",
          "name": "a",
          "type": "uint256"
        },
        {
          "internalType": "uint256",
          "name": "b",
          "type": "uint256"
        }
      ],
      "name": "safeDiv",
      "outputs": [
        {
          "internalType": "uint256",
          "name": "c",
          "type": "uint256"
        }
      ],
      "stateMutability": "pure",
      "type": "function"
    },
    {
      "inputs": [
        {
          "internalType": "uint256",
          "name": "a",
          "type": "uint256"
        },
        {
          "internalType": "uint256",
          "name": "b",
          "type": "uint256"
        }
      ],
      "name": "safeMul",
      "outputs": [
        {
          "internalType": "uint256",
          "name": "c",
          "type": "uint256"
        }
      ],
      "stateMutability": "pure",
      "type": "function"
    },
    {
      "inputs": [
        {
          "internalType": "uint256",
          "name": "a",
          "type": "uint256"
        },
        {
          "internalType": "uint256",
          "name": "b",
          "type": "uint256"
        }
      ],
      "name": "safeSub",
      "outputs": [
        {
          "internalType": "uint256",
          "name": "c",
          "type": "uint256"
        }
      ],
      "stateMutability": "pure",
      "type": "function"
    },
    {
      "inputs": [],
      "name": "totalSupply",
      "outputs": [
        {
          "internalType": "uint256",
          "name": "",
          "type": "uint256"
        }
      ],
      "stateMutability": "view",
      "type": "function"
    },
    {
      "inputs": [
        {
          "internalType": "address",
          "name": "tokenOwner",
          "type": "address"
        }
      ],
      "name": "balanceOf",
      "outputs": [
        {
          "internalType": "uint256",
          "name": "balance",
          "type": "uint256"
        }
      ],
      "stateMutability": "view",
      "type": "function"
    },
    {
      "inputs": [
        {
          "internalType": "address",
          "name": "owner",
          "type": "address"
        },
        {
          "internalType": "address",
          "name": "spender",
          "type": "address"
        }
      ],
      "name": "allowance",
      "outputs": [
        {
          "internalType": "uint256",
          "name": "",
          "type": "uint256"
        }
      ],
      "stateMutability": "view",
      "type": "function"
    },
    {
      "inputs": [
        {
          "internalType": "address",
          "name": "to",
          "type": "address"
        },
        {
          "internalType": "uint256",
          "name": "ammount",
          "type": "uint256"
        }
      ],
      "name": "transfer",
      "outputs": [
        {
          "internalType": "bool",
          "name": "result",
          "type": "bool"
        }
      ],
      "stateMutability": "nonpayable",
      "type": "function"
    },
    {
      "inputs": [
        {
          "internalType": "address",
          "name": "spender",
          "type": "address"
        },
        {
          "internalType": "uint256",
          "name": "value",
          "type": "uint256"
        }
      ],
      "name": "approve",
      "outputs": [
        {
          "internalType": "bool",
          "name": "",
          "type": "bool"
        }
      ],
      "stateMutability": "nonpayable",
      "type": "function"
    },
    {
      "inputs": [
        {
          "internalType": "address",
          "name": "from",
          "type": "address"
        },
        {
          "internalType": "address",
          "name": "to",
          "type": "address"
        },
        {
          "internalType": "uint256",
          "name": "value",
          "type": "uint256"
        }
      ],
      "name": "transferFrom",
      "outputs": [
        {
          "internalType": "bool",
          "name": "result",
          "type": "bool"
        }
      ],
      "stateMutability": "nonpayable",
      "type": "function"
    },
    {
      "inputs": [
        {
          "internalType": "address",
          "name": "spender",
          "type": "address"
        },
        {
          "internalType": "uint256",
          "name": "value",
          "type": "uint256"
        }
      ],
      "name": "increaseAllowance",
      "outputs": [
        {
          "internalType": "bool",
          "name": "",
          "type": "bool"
        }
      ],
      "stateMutability": "nonpayable",
      "type": "function"
    },
    {
      "inputs": [
        {
          "internalType": "address",
          "name": "spender",
          "type": "address"
        },
        {
          "internalType": "uint256",
          "name": "value",
          "type": "uint256"
        }
      ],
      "name": "decreaseAllowance",
      "outputs": [
        {
          "internalType": "bool",
          "name": "",
          "type": "bool"
        }
      ],
      "stateMutability": "nonpayable",
      "type": "function"
    },
    {
      "inputs": [
        {
          "internalType": "uint256",
          "name": "ammount",
          "type": "uint256"
        }
      ],
      "name": "burn",
      "outputs": [],
      "stateMutability": "nonpayable",
      "type": "function"
    }
  ],
  "bytecode": "0x60806040523480156200001157600080fd5b506040518060400160405280600f81526020017f506574726f4275726e20546f6b656e0000000000000000000000000000000000815250600290805190602001906200005f92919062000237565b506040518060400160405280600381526020017f504254000000000000000000000000000000000000000000000000000000000081525060039080519060200190620000ad92919062000237565b506012600460006101000a81548160ff021916908360ff160217905550600460009054906101000a900460ff16600a620000e8919062000370565b6103e8620000f79190620004ad565b60058190555033600660006101000a81548173ffffffffffffffffffffffffffffffffffffffff021916908373ffffffffffffffffffffffffffffffffffffffff160217905550600554600080600660009054906101000a900473ffffffffffffffffffffffffffffffffffffffff1673ffffffffffffffffffffffffffffffffffffffff1673ffffffffffffffffffffffffffffffffffffffff16815260200190815260200160002081905550600660009054906101000a900473ffffffffffffffffffffffffffffffffffffffff1673ffffffffffffffffffffffffffffffffffffffff16600073ffffffffffffffffffffffffffffffffffffffff167fddf252ad1be2c89b69c2b068fc378daa952ba7f163c4a11628f55a4df523b3ef600554604051620002299190620002f8565b60405180910390a3620005c6565b828054620002459062000525565b90600052602060002090601f016020900481019282620002695760008555620002b5565b82601f106200028457805160ff1916838001178555620002b5565b82800160010185558215620002b5579182015b82811115620002b457825182559160200191906001019062000297565b5b509050620002c49190620002c8565b5090565b5b80821115620002e3576000816000905550600101620002c9565b5090565b620002f2816200050e565b82525050565b60006020820190506200030f6000830184620002e7565b92915050565b6000808291508390505b600185111562000367578086048111156200033f576200033e6200055b565b5b60018516156200034f5780820291505b80810290506200035f85620005b9565b94506200031f565b94509492505050565b60006200037d826200050e565b91506200038a8362000518565b9250620003b97fffffffffffffffffffffffffffffffffffffffffffffffffffffffffffffffff8484620003c1565b905092915050565b600082620003d35760019050620004a6565b81620003e35760009050620004a6565b8160018114620003fc576002811462000407576200043d565b6001915050620004a6565b60ff8411156200041c576200041b6200055b565b5b8360020a9150848211156200043657620004356200055b565b5b50620004a6565b5060208310610133831016604e8410600b8410161715620004775782820a9050838111156200047157620004706200055b565b5b620004a6565b62000486848484600162000315565b92509050818404811115620004a0576200049f6200055b565b5b81810290505b9392505050565b6000620004ba826200050e565b9150620004c7836200050e565b9250817fffffffffffffffffffffffffffffffffffffffffffffffffffffffffffffffff04831182151516156200050357620005026200055b565b5b828202905092915050565b6000819050919050565b600060ff82169050919050565b600060028204905060018216806200053e57607f821691505b602082108114156200055557620005546200058a565b5b50919050565b7f4e487b7100000000000000000000000000000000000000000000000000000000600052601160045260246000fd5b7f4e487b7100000000000000000000000000000000000000000000000000000000600052602260045260246000fd5b60008160011c9050919050565b6118e580620005d66000396000f3fe608060405234801561001057600080fd5b506004361061010b5760003560e01c8063a293d1e8116100a2578063b5931f7c11610071578063b5931f7c146102f4578063d05c78da14610324578063d28d885214610354578063dd62ed3e14610372578063e6cb9013146103a25761010b565b8063a293d1e814610246578063a457c2d714610276578063a9059cbb146102a6578063b09f1266146102d65761010b565b806339509351116100de57806339509351146101ac5780633eaaf86b146101dc57806342966c68146101fa57806370a08231146102165761010b565b8063095ea7b31461011057806318160ddd1461014057806323b872dd1461015e57806332424aa31461018e575b600080fd5b61012a6004803603810190610125919061146d565b6103d2565b6040516101379190611580565b60405180910390f35b6101486104fd565b60405161015591906115bd565b60405180910390f35b6101786004803603810190610173919061141a565b610550565b6040516101859190611580565b60405180910390f35b61019661082e565b6040516101a391906115d8565b60405180910390f35b6101c660048036038101906101c1919061146d565b610841565b6040516101d39190611580565b60405180910390f35b6101e4610a6d565b6040516101f191906115bd565b60405180910390f35b610214600480360381019061020f91906114ad565b610a73565b005b610230600480360381019061022b91906113ad565b610a80565b60405161023d91906115bd565b60405180910390f35b610260600480360381019061025b91906114da565b610ac8565b60405161026d91906115bd565b60405180910390f35b610290600480360381019061028b919061146d565b610aeb565b60405161029d9190611580565b60405180910390f35b6102c060048036038101906102bb919061146d565b610d17565b6040516102cd9190611580565b60405180910390f35b6102de610fba565b6040516102eb919061159b565b60405180910390f35b61030e600480360381019061030991906114da565b611048565b60405161031b91906115bd565b60405180910390f35b61033e600480360381019061033991906114da565b61106a565b60405161034b91906115bd565b60405180910390f35b61035c6110a2565b604051610369919061159b565b60405180910390f35b61038c600480360381019061038791906113da565b611130565b60405161039991906115bd565b60405180910390f35b6103bc60048036038101906103b791906114da565b6111b7565b6040516103c991906115bd565b60405180910390f35b60008073ffffffffffffffffffffffffffffffffffffffff168373ffffffffffffffffffffffffffffffffffffffff16141561040d57600080fd5b81600160003373ffffffffffffffffffffffffffffffffffffffff1673ffffffffffffffffffffffffffffffffffffffff16815260200190815260200160002060008573ffffffffffffffffffffffffffffffffffffffff1673ffffffffffffffffffffffffffffffffffffffff168152602001908152602001600020819055508273ffffffffffffffffffffffffffffffffffffffff163373ffffffffffffffffffffffffffffffffffffffff167f8c5be1e5ebec7d5bd14f71427d1e84f3dd0314c0f7b2291e5b200ac8c7c3b925846040516104eb91906115bd565b60405180910390a36001905092915050565b60008060008073ffffffffffffffffffffffffffffffffffffffff1673ffffffffffffffffffffffffffffffffffffffff1681526020019081526020016000205460055461054b91906116f0565b905090565b60008073ffffffffffffffffffffffffffffffffffffffff168373ffffffffffffffffffffffffffffffffffffffff16141561058b57600080fd5b6105d36000808673ffffffffffffffffffffffffffffffffffffffff1673ffffffffffffffffffffffffffffffffffffffff1681526020019081526020016000205483610ac8565b6000808673ffffffffffffffffffffffffffffffffffffffff1673ffffffffffffffffffffffffffffffffffffffff168152602001908152602001600020819055506000610620836111da565b9050600061062e8483610ac8565b90506106786000808773ffffffffffffffffffffffffffffffffffffffff1673ffffffffffffffffffffffffffffffffffffffff16815260200190815260200160002054826111b7565b6000808773ffffffffffffffffffffffffffffffffffffffff1673ffffffffffffffffffffffffffffffffffffffff168152602001908152602001600020819055506107026000808073ffffffffffffffffffffffffffffffffffffffff1673ffffffffffffffffffffffffffffffffffffffff16815260200190815260200160002054836111b7565b6000808073ffffffffffffffffffffffffffffffffffffffff1673ffffffffffffffffffffffffffffffffffffffff1681526020019081526020016000208190555061075060055483610ac8565b6005819055508473ffffffffffffffffffffffffffffffffffffffff168673ffffffffffffffffffffffffffffffffffffffff167fddf252ad1be2c89b69c2b068fc378daa952ba7f163c4a11628f55a4df523b3ef836040516107b391906115bd565b60405180910390a3600073ffffffffffffffffffffffffffffffffffffffff168673ffffffffffffffffffffffffffffffffffffffff167fddf252ad1be2c89b69c2b068fc378daa952ba7f163c4a11628f55a4df523b3ef8460405161081991906115bd565b60405180910390a36001925050509392505050565b600460009054906101000a900460ff1681565b60008073ffffffffffffffffffffffffffffffffffffffff168373ffffffffffffffffffffffffffffffffffffffff16141561087c57600080fd5b610902600160003373ffffffffffffffffffffffffffffffffffffffff1673ffffffffffffffffffffffffffffffffffffffff16815260200190815260200160002060008573ffffffffffffffffffffffffffffffffffffffff1673ffffffffffffffffffffffffffffffffffffffff16815260200190815260200160002054836111b7565b600160003373ffffffffffffffffffffffffffffffffffffffff1673ffffffffffffffffffffffffffffffffffffffff16815260200190815260200160002060008573ffffffffffffffffffffffffffffffffffffffff1673ffffffffffffffffffffffffffffffffffffffff168152602001908152602001600020819055508273ffffffffffffffffffffffffffffffffffffffff163373ffffffffffffffffffffffffffffffffffffffff167f8c5be1e5ebec7d5bd14f71427d1e84f3dd0314c0f7b2291e5b200ac8c7c3b925600160003373ffffffffffffffffffffffffffffffffffffffff1673ffffffffffffffffffffffffffffffffffffffff16815260200190815260200160002060008773ffffffffffffffffffffffffffffffffffffffff1673ffffffffffffffffffffffffffffffffffffffff16815260200190815260200160002054604051610a5b91906115bd565b60405180910390a36001905092915050565b60055481565b610a7d33826111f3565b50565b60008060008373ffffffffffffffffffffffffffffffffffffffff1673ffffffffffffffffffffffffffffffffffffffff168152602001908152602001600020549050919050565b600082821115610ad757600080fd5b8183610ae391906116f0565b905092915050565b60008073ffffffffffffffffffffffffffffffffffffffff168373ffffffffffffffffffffffffffffffffffffffff161415610b2657600080fd5b610bac600160003373ffffffffffffffffffffffffffffffffffffffff1673ffffffffffffffffffffffffffffffffffffffff16815260200190815260200160002060008573ffffffffffffffffffffffffffffffffffffffff1673ffffffffffffffffffffffffffffffffffffffff1681526020019081526020016000205483610ac8565b600160003373ffffffffffffffffffffffffffffffffffffffff1673ffffffffffffffffffffffffffffffffffffffff16815260200190815260200160002060008573ffffffffffffffffffffffffffffffffffffffff1673ffffffffffffffffffffffffffffffffffffffff168152602001908152602001600020819055508273ffffffffffffffffffffffffffffffffffffffff163373ffffffffffffffffffffffffffffffffffffffff167f8c5be1e5ebec7d5bd14f71427d1e84f3dd0314c0f7b2291e5b200ac8c7c3b925600160003373ffffffffffffffffffffffffffffffffffffffff1673ffffffffffffffffffffffffffffffffffffffff16815260200190815260200160002060008773ffffffffffffffffffffffffffffffffffffffff1673ffffffffffffffffffffffffffffffffffffffff16815260200190815260200160002054604051610d0591906115bd565b60405180910390a36001905092915050565b600080610d23836111da565b90506000610d318483610ac8565b9050610d7b6000803373ffffffffffffffffffffffffffffffffffffffff1673ffffffffffffffffffffffffffffffffffffffff1681526020019081526020016000205485610ac8565b6000803373ffffffffffffffffffffffffffffffffffffffff1673ffffffffffffffffffffffffffffffffffffffff16815260200190815260200160002081905550610e056000808773ffffffffffffffffffffffffffffffffffffffff1673ffffffffffffffffffffffffffffffffffffffff16815260200190815260200160002054826111b7565b6000808773ffffffffffffffffffffffffffffffffffffffff1673ffffffffffffffffffffffffffffffffffffffff16815260200190815260200160002081905550610e8f6000808073ffffffffffffffffffffffffffffffffffffffff1673ffffffffffffffffffffffffffffffffffffffff16815260200190815260200160002054836111b7565b6000808073ffffffffffffffffffffffffffffffffffffffff1673ffffffffffffffffffffffffffffffffffffffff16815260200190815260200160002081905550610edd60055483610ac8565b6005819055508473ffffffffffffffffffffffffffffffffffffffff163373ffffffffffffffffffffffffffffffffffffffff167fddf252ad1be2c89b69c2b068fc378daa952ba7f163c4a11628f55a4df523b3ef86604051610f4091906115bd565b60405180910390a3600073ffffffffffffffffffffffffffffffffffffffff163373ffffffffffffffffffffffffffffffffffffffff167fddf252ad1be2c89b69c2b068fc378daa952ba7f163c4a11628f55a4df523b3ef84604051610fa691906115bd565b60405180910390a360019250505092915050565b60038054610fc7906117ac565b80601f0160208091040260200160405190810160405280929190818152602001828054610ff3906117ac565b80156110405780601f1061101557610100808354040283529160200191611040565b820191906000526020600020905b81548152906001019060200180831161102357829003601f168201915b505050505081565b600080821161105657600080fd5b81836110629190611665565b905092915050565b600081836110789190611696565b9050600083148061109357508183826110919190611665565b145b61109c57600080fd5b92915050565b600280546110af906117ac565b80601f01602080910402602001604051908101604052809291908181526020018280546110db906117ac565b80156111285780601f106110fd57610100808354040283529160200191611128565b820191906000526020600020905b81548152906001019060200180831161110b57829003601f168201915b505050505081565b6000600160008473ffffffffffffffffffffffffffffffffffffffff1673ffffffffffffffffffffffffffffffffffffffff16815260200190815260200160002060008373ffffffffffffffffffffffffffffffffffffffff1673ffffffffffffffffffffffffffffffffffffffff16815260200190815260200160002054905092915050565b600081836111c5919061160f565b9050828110156111d457600080fd5b92915050565b6000806111e8836064611048565b905080915050919050565b6111ff60055482610ac8565b60058190555061124d6000808473ffffffffffffffffffffffffffffffffffffffff1673ffffffffffffffffffffffffffffffffffffffff1681526020019081526020016000205482610ac8565b6000808473ffffffffffffffffffffffffffffffffffffffff1673ffffffffffffffffffffffffffffffffffffffff168152602001908152602001600020819055506112d76000808073ffffffffffffffffffffffffffffffffffffffff1673ffffffffffffffffffffffffffffffffffffffff16815260200190815260200160002054826111b7565b6000808073ffffffffffffffffffffffffffffffffffffffff1673ffffffffffffffffffffffffffffffffffffffff16815260200190815260200160002081905550600073ffffffffffffffffffffffffffffffffffffffff168273ffffffffffffffffffffffffffffffffffffffff167fddf252ad1be2c89b69c2b068fc378daa952ba7f163c4a11628f55a4df523b3ef8360405161137791906115bd565b60405180910390a35050565b60008135905061139281611881565b92915050565b6000813590506113a781611898565b92915050565b6000602082840312156113c3576113c261186b565b5b60006113d184828501611383565b91505092915050565b600080604083850312156113f1576113f061186b565b5b60006113ff85828601611383565b925050602061141085828601611383565b9150509250929050565b6000806000606084860312156114335761143261186b565b5b600061144186828701611383565b935050602061145286828701611383565b925050604061146386828701611398565b9150509250925092565b600080604083850312156114845761148361186b565b5b600061149285828601611383565b92505060206114a385828601611398565b9150509250929050565b6000602082840312156114c3576114c261186b565b5b60006114d184828501611398565b91505092915050565b600080604083850312156114f1576114f061186b565b5b60006114ff85828601611398565b925050602061151085828601611398565b9150509250929050565b61152381611736565b82525050565b6000611534826115f3565b61153e81856115fe565b935061154e818560208601611779565b61155781611870565b840191505092915050565b61156b81611762565b82525050565b61157a8161176c565b82525050565b6000602082019050611595600083018461151a565b92915050565b600060208201905081810360008301526115b58184611529565b905092915050565b60006020820190506115d26000830184611562565b92915050565b60006020820190506115ed6000830184611571565b92915050565b600081519050919050565b600082825260208201905092915050565b600061161a82611762565b915061162583611762565b9250827fffffffffffffffffffffffffffffffffffffffffffffffffffffffffffffffff0382111561165a576116596117de565b5b828201905092915050565b600061167082611762565b915061167b83611762565b92508261168b5761168a61180d565b5b828204905092915050565b60006116a182611762565b91506116ac83611762565b9250817fffffffffffffffffffffffffffffffffffffffffffffffffffffffffffffffff04831182151516156116e5576116e46117de565b5b828202905092915050565b60006116fb82611762565b915061170683611762565b925082821015611719576117186117de565b5b828203905092915050565b600061172f82611742565b9050919050565b60008115159050919050565b600073ffffffffffffffffffffffffffffffffffffffff82169050919050565b6000819050919050565b600060ff82169050919050565b60005b8381101561179757808201518184015260208101905061177c565b838111156117a6576000848401525b50505050565b600060028204905060018216806117c457607f821691505b602082108114156117d8576117d761183c565b5b50919050565b7f4e487b7100000000000000000000000000000000000000000000000000000000600052601160045260246000fd5b7f4e487b7100000000000000000000000000000000000000000000000000000000600052601260045260246000fd5b7f4e487b7100000000000000000000000000000000000000000000000000000000600052602260045260246000fd5b600080fd5b6000601f19601f8301169050919050565b61188a81611724565b811461189557600080fd5b50565b6118a181611762565b81146118ac57600080fd5b5056fea26469706673582212209f92033be1dff7f2f4a1c49288088325e3371fc8f0e4c267b5bedb4986dc673b64736f6c63430008060033",
  "immutableReferences": {},
  "source": "pragma solidity ^0.8.6;\n\nimport \"./interfaces/erc20interface.sol\";\nimport \"./safemath.sol\";\n\ncontract PetroBurn is ERC20Interface, SafeMath {\n\n\tmapping (address => uint256) _balances;\n\tmapping (address => mapping (address => uint256)) _allowed;\n\n\tstring public _name;\n\tstring public _symbol;\n\tuint8 public _decimals;\n\tuint256 public _totalSupply;\n\taddress private _mywallet;\n\n\tconstructor() {\n\t\t_name = \"PetroBurn Token\";\n\t\t_symbol = \"PBT\";\n\t\t_decimals = 18;\n\t\t_totalSupply = 1000*10**_decimals;\n\t\t_mywallet = msg.sender;\n\t\t_balances [_mywallet] = _totalSupply;\n\t\temit Transfer (address(0), _mywallet, _totalSupply);\n\t} \n\n\tfunction totalSupply() override public view returns (uint){\n\t\treturn _totalSupply - _balances[address(0)];\n\t}\n\n\tfunction balanceOf(address tokenOwner) override public view returns (uint256 balance){\n\t\treturn _balances[tokenOwner];\n\t}\n\t\n\tfunction allowance(address owner, address spender)public override view returns(uint256){\n\t\treturn _allowed[owner][spender];\n\t}\n\n\tfunction findOnePercent(uint256 value)internal view returns(uint256 result){\n\t\tuint256 onePercent = safeDiv(value, 100);\n\t\treturn onePercent; \n\t}\n\n\tfunction transfer(address to, uint256 ammount) override public returns (bool result) {\n\t\t\n\t\tuint256 toBurn = findOnePercent(ammount);\n\t\tuint256 toTransfer = safeSub(ammount, toBurn);\n\n\t\t_balances[msg.sender] = safeSub(_balances[msg.sender], ammount);\n\t\t_balances[to] = safeAdd(_balances[to], toTransfer);\n\t\t\n\t\t_balances[address(0)] = safeAdd(_balances[address(0)], toBurn);\n\n\t\t_totalSupply = safeSub(_totalSupply, toBurn);\n\n\t\temit Transfer(msg.sender, to, ammount);\n\t\temit Transfer(msg.sender, address(0), toBurn);\n\t\treturn true; \n\t}\n\n\tfunction approve(address spender, uint256 value)override public returns(bool){\n\t\trequire(spender != address(0));\n\t\t_allowed[msg.sender][spender] = value;\n\t\temit Approval(msg.sender, spender, value);\n\t\treturn true;\n\t}\n\n\tfunction transferFrom(address from, address to, uint256 value) override public returns (bool result){\n\t\trequire(to != address(0));\n\t\t\n\t\t_balances[from] = safeSub(_balances[from], value);\n\n\t\tuint256 toBurn = findOnePercent(value);\n\t\tuint256 toTransfer = safeSub(value, toBurn);\n\n\t\t_balances[to] = safeAdd(_balances[to], toTransfer);\n\t\t_balances[address(0)] = safeAdd(_balances[address(0)], toBurn);\n\t\t_totalSupply = safeSub(_totalSupply, toBurn);\n\n\t\temit Transfer(from, to, toTransfer);\n\t\temit Transfer(from, address(0), toBurn);\n\t\treturn true;\n\t}\n\n\tfunction increaseAllowance(address spender, uint256 value)public returns (bool){\n\t\trequire(spender != address(0));\n\t\t_allowed[msg.sender][spender] = safeAdd(_allowed[msg.sender][spender], value);\n\t\temit Approval(msg.sender, spender, _allowed[msg.sender][spender]);\n\t\treturn true;\n\t}\n\n\n\tfunction decreaseAllowance(address spender, uint256 value)public returns (bool){\n\t\trequire(spender != address(0));\n\t\t_allowed[msg.sender][spender] = safeSub(_allowed[msg.sender][spender], value);\n\t\temit Approval(msg.sender, spender, _allowed[msg.sender][spender]);\n\t\treturn true;\n\t}\n\n\tfunction burn(uint256 ammount) external{\n\t\t_burn(msg.sender, ammount);\n\t}\n\n\tfunction _burn(address account, uint256 ammount) internal{\n\t\t_totalSupply = safeSub(_totalSupply, ammount);\n\t\t_balances[account] = safeSub(_balances[account], ammount);\n\t\t_balances[address(0)] = safeAdd(_balances[address(0)], ammount);\n\t\temit Transfer(account, address(0), ammount);\n\t}\n\n\n}",
  "sourcePath": "/home/allinone/Proga/Solidity/erc20-burn/contracts/erc20-burn.sol",
  "compiler": {
    "name": "solc",
    "version": "0.8.6+commit.11564f7e.Emscripten.clang"
  },
  "schemaVersion": "3.3.4",
  "updatedAt": "2021-07-30T13:20:29.087Z",
  "devdoc": {
    "kind": "dev",
    "methods": {},
    "version": 1
  },
  "userdoc": {
    "kind": "user",
    "methods": {},
    "version": 1
  }
}