{
  "contractName": "SafeMath",
  "abi": [
    {
      "inputs": [
        {
          "internalType": "uint256",
          "name": "a",
          "type": "uint256"
        },
        {
          "internalType": "uint256",
          "name": "b",
          "type": "uint256"
        }
      ],
      "name": "safeAdd",
      "outputs": [
        {
          "internalType": "uint256",
          "name": "c",
          "type": "uint256"
        }
      ],
      "stateMutability": "pure",
      "type": "function"
    },
    {
      "inputs": [
        {
          "internalType": "uint256",
          "name": "a",
          "type": "uint256"
        },
        {
          "internalType": "uint256",
          "name": "b",
          "type": "uint256"
        }
      ],
      "name": "safeSub",
      "outputs": [
        {
          "internalType": "uint256",
          "name": "c",
          "type": "uint256"
        }
      ],
      "stateMutability": "pure",
      "type": "function"
    },
    {
      "inputs": [
        {
          "internalType": "uint256",
          "name": "a",
          "type": "uint256"
        },
        {
          "internalType": "uint256",
          "name": "b",
          "type": "uint256"
        }
      ],
      "name": "safeMul",
      "outputs": [
        {
          "internalType": "uint256",
          "name": "c",
          "type": "uint256"
        }
      ],
      "stateMutability": "pure",
      "type": "function"
    },
    {
      "inputs": [
        {
          "internalType": "uint256",
          "name": "a",
          "type": "uint256"
        },
        {
          "internalType": "uint256",
          "name": "b",
          "type": "uint256"
        }
      ],
      "name": "safeDiv",
      "outputs": [
        {
          "internalType": "uint256",
          "name": "c",
          "type": "uint256"
        }
      ],
      "stateMutability": "pure",
      "type": "function"
    }
  ],
  "bytecode": "0x608060405234801561001057600080fd5b506103ff806100206000396000f3fe608060405234801561001057600080fd5b506004361061004c5760003560e01c8063a293d1e814610051578063b5931f7c14610081578063d05c78da146100b1578063e6cb9013146100e1575b600080fd5b61006b600480360381019061006691906101c6565b610111565b6040516100789190610215565b60405180910390f35b61009b600480360381019061009691906101c6565b610134565b6040516100a89190610215565b60405180910390f35b6100cb60048036038101906100c691906101c6565b610156565b6040516100d89190610215565b60405180910390f35b6100fb60048036038101906100f691906101c6565b61018e565b6040516101089190610215565b60405180910390f35b60008282111561012057600080fd5b818361012c9190610311565b905092915050565b600080821161014257600080fd5b818361014e9190610286565b905092915050565b6000818361016491906102b7565b9050600083148061017f575081838261017d9190610286565b145b61018857600080fd5b92915050565b6000818361019c9190610230565b9050828110156101ab57600080fd5b92915050565b6000813590506101c0816103b2565b92915050565b600080604083850312156101dd576101dc6103ad565b5b60006101eb858286016101b1565b92505060206101fc858286016101b1565b9150509250929050565b61020f81610345565b82525050565b600060208201905061022a6000830184610206565b92915050565b600061023b82610345565b915061024683610345565b9250827fffffffffffffffffffffffffffffffffffffffffffffffffffffffffffffffff0382111561027b5761027a61034f565b5b828201905092915050565b600061029182610345565b915061029c83610345565b9250826102ac576102ab61037e565b5b828204905092915050565b60006102c282610345565b91506102cd83610345565b9250817fffffffffffffffffffffffffffffffffffffffffffffffffffffffffffffffff04831182151516156103065761030561034f565b5b828202905092915050565b600061031c82610345565b915061032783610345565b92508282101561033a5761033961034f565b5b828203905092915050565b6000819050919050565b7f4e487b7100000000000000000000000000000000000000000000000000000000600052601160045260246000fd5b7f4e487b7100000000000000000000000000000000000000000000000000000000600052601260045260246000fd5b600080fd5b6103bb81610345565b81146103c657600080fd5b5056fea2646970667358221220ffde7f443099067316e930e3820914a75ce0df4ecc97aa40c52150618acede5f64736f6c63430008060033",
  "immutableReferences": {},
  "source": "pragma solidity ^0.8.6;\n\ncontract SafeMath {\n    function safeAdd(uint a, uint b) public pure returns (uint c) {\n        c = a + b;\n        require(c >= a);\n    }\n    function safeSub(uint a, uint b) public pure returns (uint c) {\n        require(b <= a);\n        c = a - b;\n    }\n    function safeMul(uint a, uint b) public pure returns (uint c) {\n        c = a * b;\n        require(a == 0 || c / a == b);\n    }\n    function safeDiv(uint a, uint b) public pure returns (uint c) {\n        require(b > 0);\n        c = a / b;\n    }\n}",
  "sourcePath": "/home/allinone/Proga/Solidity/erc20-burn/contracts/safemath.sol",
  "compiler": {
    "name": "solc",
    "version": "0.8.6+commit.11564f7e.Emscripten.clang"
  },
  "schemaVersion": "3.3.4",
  "updatedAt": "2021-07-30T13:20:29.099Z",
  "devdoc": {
    "kind": "dev",
    "methods": {},
    "version": 1
  },
  "userdoc": {
    "kind": "user",
    "methods": {},
    "version": 1
  }
}